:100000000C942A000C943F000C943F000C943F0089
:100010000C943F000C943F000C943F000C943F0064
:100020000C943F000C943F000C943F000C943F0054
:100030000C943F000C943F000C943F000C943F0044
:100040000C943F000C943F000C943F000C943F0034
:100050000C943F0011241FBECFE5D8E0DEBFCDBF1A
:1000600010E0A0E6B0E0E4EBF1E102C005900D92F3
:10007000AE36B107D9F70E9466080C94D8080C94E4
:100080000000DF93CF93CDB7DEB7E7E2F0E080E486
:100090008083A7E2B0E0E7E2F0E080818F7D8C937F
:1000A000A6E2B0E0E6E2F0E0808180688C93A6E210
:1000B000B0E0E6E2F0E0808180688C93CF91DF9140
:1000C0000895DF93CF9300D000D00F92CDB7DEB765
:1000D0008D83A7E2B0E0E7E2F0E08081982F8D8188
:1000E0008F70892B8C93A6E2B0E0E6E2F0E080818D
:1000F00080648C93E6E2F0E0808182958F70882F97
:1001000090E0817090700097A9F3A6E2B0E0E6E27B
:10011000F0E0808180618C93E4E2F0E08081918165
:100120008C83E5E2F0E080818B838C81282F30E0A6
:100130008B81882F90E0982F8827820F931F9A83B6
:10014000898389819A810F900F900F900F900F9063
:10015000CF91DF910895DF93CF93CDB7DEB72A9784
:100160000FB6F894DEBF0FBECDBF89836A834B8381
:100170008A81883018F02FEF2A87D1C18B81813096
:1001800009F07BC08981282F30E03987288788854E
:1001900099858230910569F12885398523303105AB
:1001A00034F4888599858130910569F063C028858C
:1001B00039852330310591F1888599858430910501
:1001C00009F442C057C0AAE3B0E0EAE3F0E080815E
:1001D000482F8A81282F30E081E090E0022E02C073
:1001E000880F991F0A94E2F7842B8C9391E09A87E9
:1001F00096C1A7E3B0E0E7E3F0E08081482F8A8171
:10020000282F30E081E090E002C0880F991F2A95E6
:10021000E2F7842B8C9321E02A8781C1A4E3B0E02C
:10022000E4E3F0E08081482F8A81282F30E081E0EC
:1002300090E0022E02C0880F991F0A94E2F7842BE7
:100240008C9331E03A876BC1A1E3B0E0E1E3F0E0E9
:100250008081482F8A81282F30E081E090E0022EB3
:1002600002C0880F991F0A94E2F7842B8C9381E0D7
:100270008A8755C19EEF9A8752C18B81882309F0E6
:100280007FC08981282F30E03F832E838E819F811C
:100290008230910571F12E813F812330310534F494
:1002A0008E819F818130910569F067C02E813F81E9
:1002B00023303105A1F18E819F818430910509F4AD
:1002C00045C05BC0AAE3B0E0EAE3F0E08081482FDC
:1002D0008A81282F30E081E090E0022E02C0880F52
:1002E000991F0A94E2F7809584238C9391E09A8772
:1002F00016C1A7E3B0E0E7E3F0E08081482F8A81F0
:10030000282F30E081E090E002C0880F991F2A95E5
:10031000E2F7809584238C9321E02A8700C1A4E32F
:10032000B0E0E4E3F0E08081482F8A81282F30E0BC
:1003300081E090E0022E02C0880F991F0A94E2F734
:10034000809584238C9331E03A87E9C0A1E3B0E043
:10035000E1E3F0E08081482F8A81282F30E081E0BE
:1003600090E0022E02C0880F991F0A94E2F7809550
:1003700084238C9381E08A87D2C09EEF9A87CFC076
:100380008B81823009F0C9C08981282F30E03D83FC
:100390002C838C819D818230910509F441C02C8190
:1003A0003D812330310534F48C819D81813091056C
:1003B00071F0B0C02C813D812330310509F458C063
:1003C0008C819D818430910509F47BC0A3C0AAE390
:1003D000B0E0EAE3F0E08081482F8A81282F30E006
:1003E00081E090E002C0880F991F2A95E2F780957E
:1003F00084238C93ABE3B0E0EBE3F0E08081482F03
:100400008A81282F30E081E090E0022E02C0880F20
:10041000991F0A94E2F7842B8C9391E09A877FC00E
:10042000A7E3B0E0E7E3F0E08081482F8A81282F3E
:1004300030E081E090E002C0880F991F2A95E2F732
:10044000809584238C93A8E3B0E0E8E3F0E080811A
:10045000482F8A81282F30E081E090E002C0880F89
:10046000991F2A95E2F7842B8C9321E02A8757C0A5
:10047000A4E3B0E0E4E3F0E08081482F8A81282FF4
:1004800030E081E090E002C0880F991F2A95E2F7E2
:10049000809584238C93A5E3B0E0E5E3F0E08081D0
:1004A000482F8A81282F30E081E090E0022E02C0A0
:1004B000880F991F0A94E2F7842B8C9331E03A87D6
:1004C0002EC0A1E3B0E0E1E3F0E08081482F8A8113
:1004D000282F30E081E090E002C0880F991F2A9514
:1004E000E2F7809584238C93A2E3B0E0E2E3F0E0AE
:1004F0008081482F8A81282F30E081E090E0022E11
:1005000002C0880F991F0A94E2F7842B8C9381E034
:100510008A8705C09EEF9A8702C02DEF2A878A85B9
:100520002A960FB6F894DEBF0FBECDBFCF91DF91F4
:100530000895DF93CF9300D000D00F92CDB7DEB7F0
:1005400089836A838981282F30E03D832C838C81C5
:100550009D818230910569F12C813D8123303105E7
:1005600034F48C819D818130910569F064C02C81C7
:100570003D812330310599F18C819D818430910535
:1005800009F443C058C08A81813039F4EAE3F0E0CD
:100590008FEF808391E09B8350C08A81882331F460
:1005A000EAE3F0E0108221E02B8347C03FEF3B837A
:1005B00044C08A81813039F4E7E3F0E08FEF808333
:1005C00081E08B833AC08A81882331F4E7E3F0E04D
:1005D000108291E09B8331C02FEF2B832EC08A8144
:1005E000813039F4E4E3F0E08FEF808331E03B8346
:1005F00024C08A81882331F4E4E3F0E0108281E0B2
:100600008B831BC09FEF9B8318C08A81813039F494
:10061000E1E3F0E08FEF808321E02B830EC08A813D
:10062000882331F4E1E3F0E0108231E03B8305C040
:100630008FEF8B8302C09FEF9B838B810F900F9076
:100640000F900F900F90CF91DF910895DF93CF938C
:10065000CDB7DEB728970FB6F894DEBF0FBECDBF7B
:1006600089836A834B838A81883018F02FEF28872B
:1006700004C18B81813009F07BC08981282F30E053
:100680003F832E838E819F818230910569F12E8177
:100690003F812330310534F48E819F818130910573
:1006A00069F063C02E813F812330310591F18E8145
:1006B0009F818430910509F442C057C0ABE3B0E09C
:1006C000EBE3F0E08081482F8A81282F30E081E041
:1006D00090E0022E02C0880F991F0A94E2F7842B43
:1006E0008C9391E09887C9C0A8E3B0E0E8E3F0E01C
:1006F0008081482F8A81282F30E081E090E002C07D
:10070000880F991F2A95E2F7842B8C9321E0288784
:10071000B4C0A5E3B0E0E5E3F0E08081482F8A8132
:10072000282F30E081E090E0022E02C0880F991F50
:100730000A94E2F7842B8C9331E038879EC0A2E3C1
:10074000B0E0E2E3F0E08081482F8A81282F30E09A
:1007500081E090E0022E02C0880F991F0A94E2F710
:10076000842B8C9381E0888788C09EEF988785C012
:100770008B81882309F07FC08981282F30E03D8359
:100780002C838C819D818230910571F12C813D817A
:100790002330310534F48C819D818130910569F0DD
:1007A00067C02C813D8123303105A1F18C819D8171
:1007B0008430910509F445C05BC0ABE3B0E0EBE3E6
:1007C000F0E08081482F8A81282F30E081E090E09E
:1007D000022E02C0880F991F0A94E2F780958423A5
:1007E0008C9391E0988749C0A8E3B0E0E8E3F0E09B
:1007F0008081482F8A81282F30E081E090E002C07C
:10080000880F991F2A95E2F7809584238C9321E025
:10081000288733C0A5E3B0E0E5E3F0E08081482F0E
:100820008A81282F30E081E090E0022E02C0880FFC
:10083000991F0A94E2F7809584238C9331E03887DE
:100840001CC0A2E3B0E0E2E3F0E08081482F8A819F
:10085000282F30E081E090E0022E02C0880F991F1F
:100860000A94E2F7809584238C9381E0888705C001
:100870009EEF988702C02DEF2887888528960FB6AF
:10088000F894DEBF0FBECDBFCF91DF910895DF9307
:10089000CF9300D000D00F92CDB7DEB789836A83A3
:1008A0008981282F30E03D832C838C819D8182308B
:1008B0009105E9F02C813D812330310534F48C81A0
:1008C0009D818130910561F027C02C813D812330CD
:1008D0003105A1F08C819D8184309105B1F01CC05F
:1008E000EBE3F0E08A81808391E09B8317C0E8E32B
:1008F000F0E08A81808321E02B8310C0E5E3F0E003
:100900008A81808331E03B8309C0E2E3F0E08A81A1
:10091000808381E08B8302C09FEF9B838B810F904C
:100920000F900F900F900F90CF91DF910895DF936C
:10093000CF93CDB7DEB727970FB6F894DEBF0FBEC3
:10094000CDBF89836A835C834B838A81883018F0AA
:100950002FEF2F837BC08981482F50E05E834D832A
:100960008D819E818230910569F12D813E812330F8
:10097000310534F44D815E814130510569F064C028
:100980008D819E818330910599F12D813E812430A6
:10099000310509F443C058C0E9E3F0E08081282F15
:1009A00030E08A81882F90E0A90102C055954795D3
:1009B0008A95E2F7CA018170EB81FC81808351E066
:1009C0005F8344C0E6E3F0E08081282F30E08A8135
:1009D000882F90E0A90102C0559547958A95E2F7C6
:1009E000CA018170EB81FC81808351E05F832EC05E
:1009F000E3E3F0E08081282F30E08A81882F90E0C7
:100A0000A90102C0559547958A95E2F7CA01817000
:100A1000EB81FC81808351E05F8318C0E0E3F0E06C
:100A20008081282F30E08A81882F90E0A90102C0C0
:100A3000559547958A95E2F7CA018170EB81FC8153
:100A4000808351E05F8302C08EEF8F838F81279672
:100A50000FB6F894DEBF0FBECDBFCF91DF910895E2
:100A6000DF93CF9300D000D000D0CDB7DEB789831D
:100A70007B836A838981282F30E03E832D838D819B
:100A80009E8182309105F9F02D813E812330310520
:100A900034F48D819E818130910561F02FC02D81CC
:100AA0003E8123303105C1F08D819E8184309105D6
:100AB000E1F024C0E9E3F0E08081EA81FB818083FA
:100AC00091E09C831DC0E6E3F0E08081EA81FB8138
:100AD000808321E02C8314C0E3E3F0E08081EA818D
:100AE000FB81808331E03C830BC0E0E3F0E0808158
:100AF000EA81FB81808381E08C8302C09EEF9C832E
:100B00008C8126960FB6F894DEBF0FBECDBFCF9175
:100B1000DF910895DF93CF9300D000D00F92CDB72F
:100B2000DEB789836A838A81883018F02FEF2D839E
:100B30007AC08981282F30E03C832B838B819C8174
:100B40008230910569F12B813C812330310534F4E9
:100B50008B819C818130910569F063C02B813C8140
:100B60002330310591F18B819C818430910509F40A
:100B700042C057C0ABE3B0E0EBE3F0E08081482F28
:100B80008A81282F30E081E090E0022E02C0880F99
:100B9000991F0A94E2F784278C9391E09D8343C0C8
:100BA000A8E3B0E0E8E3F0E08081482F8A81282FB5
:100BB00030E081E090E002C0880F991F2A95E2F7AB
:100BC00084278C9321E02D832EC0A5E3B0E0E5E3DC
:100BD000F0E08081482F8A81282F30E081E090E08A
:100BE000022E02C0880F991F0A94E2F784278C9383
:100BF00031E03D8318C0A2E3B0E0E2E3F0E08081A1
:100C0000482F8A81282F30E081E090E0022E02C038
:100C1000880F991F0A94E2F784278C9381E08D83D3
:100C200002C09EEF9D838D810F900F900F900F90CB
:100C30000F90CF91DF910895DF93CF93CDB7DEB7BB
:100C400081E067E041E00E94AB0081E061E041E0CB
:100C50000E94AB0081E062E041E00E94AB0081E0D5
:100C600063E041E00E94AB0081E064E041E00E946B
:100C7000AB0081E065E041E00E94AB0081E066E00E
:100C800041E00E94AB0062E370E080E090E00E94EF
:100C9000160888E20E9479068FE00E94790681E0BA
:100CA0000E94790686E00E947906CF91DF9108952F
:100CB000DF93CF9300D0CDB7DEB789836A83898174
:100CC000882341F48A81803178F48A8180580E9497
:100CD00079060AC08981813039F48A81803120F413
:100CE0008A8180540E9479060F900F90CF91DF91F6
:100CF0000895DF93CF930F92CDB7DEB789838981B3
:100D0000807F8160982F81E0692F0E94470481E0F5
:100D100061E040E00E94260381E063E041E00E9440
:100D2000260361E070E080E090E00E94160881E018
:100D300063E040E00E94260361E070E080E090E024
:100D40000E9416088981882F90E082959295907F65
:100D50009827807F98278160982F81E0692F0E94D3
:100D6000470481E061E040E00E94260381E063E007
:100D700041E00E94260361E070E080E090E00E9484
:100D8000160881E063E040E00E94260361E070E025
:100D900080E090E00E9416080F90CF91DF910895B7
:100DA000DF93CF930F92CDB7DEB789838981807FA0
:100DB0008160982F81E0692F0E94470481E061E003
:100DC00041E00E94260381E063E041E00E942603A7
:100DD00061E070E080E090E00E94160881E063E04E
:100DE00040E00E94260361E070E080E090E00E9415
:100DF00016088981882F90E082959295907F982798
:100E0000807F98278160982F81E0692F0E94470496
:100E100081E061E041E00E94260381E063E041E07F
:100E20000E94260361E070E080E090E00E941608D6
:100E300081E063E040E00E94260361E070E080E032
:100E400090E00E9416080F90CF91DF910895DF93F4
:100E5000CF9300D00F92CDB7DEB79B838A831982E0
:100E600022C089818F5F8983EA81FB8180810E9412
:100E7000D0068A819B8101969B838A8389818031F8
:100E800029F481E060E00E9458060DC0898180321B
:100E900019F08981813239F40E94E90780E060E02D
:100EA0000E9458061982EA81FB8180818823C9F655
:100EB0000F900F900F90CF91DF910895DF93CF9314
:100EC0000F92CDB7DEB7198281E064E040E00E9466
:100ED000AB0081E065E040E00E94AB0081E066E0AD
:100EE00040E00E94AB0081E067E040E00E94AB0080
:100EF00081E061E040E00E94260381E062E041E0A1
:100F00000E94260381E063E041E00E94260361E045
:100F100070E080E090E00E94160881E063E040E02D
:100F20000E94260361E070E080E090E00E941608D5
:100F300081E064E041E00E94AB0081E065E041E0D7
:100F40000E94AB0081E066E041E00E94AB0081E0DE
:100F500067E041E00E94AB000F90CF91DF910895D0
:100F6000DF93CF93CDB7DEB728970FB6F894DEBFE7
:100F70000FBECDBF6D837E838F83988719821A82BF
:100F80001B821C8219821A821B821C820CC00000E8
:100F900089819A81AB81BC810196A11DB11D898394
:100FA0009A83AB83BC8329813A814B815C818D819B
:100FB0009E81AF81B885281739074A075B0738F348
:100FC00028960FB6F894DEBF0FBECDBFCF91DF914C
:100FD0000895DF93CF93CDB7DEB781E00E94790605
:100FE00062E070E080E090E00E94160880E80E94D5
:100FF000790662E070E080E090E00E941608CF91F0
:10100000DF910895DF93CF93CDB7DEB780E10E94E3
:101010007906CF91DF910895DF93CF93CDB7DEB7F7
:1010200084E10E947906CF91DF910895DF93CF93F9
:10103000CDB7DEB72C970FB6F894DEBF0FBECDBF8D
:1010400069877A878B879C8719821A821B821C8208
:1010500027C019821A821B821C820BC089819A8147
:10106000AB81BC810196A11DB11D89839A83AB839D
:10107000BC8389819A81AB81BC81823C21E092074B
:1010800020E0A20720E0B20748F389819A81AB8172
:10109000BC810196A11DB11D89839A83AB83BC835A
:1010A00029813A814B815C8189859A85AB85BC8594
:1010B000281739074A075B0760F22C960FB6F89499
:1010C000DEBF0FBECDBFCF91DF910895DF93CF93E9
:1010D000CDB7DEB727970FB6F894DEBF0FBECDBFF2
:1010E0000E941C060E94410080E690E00E942707B3
:1010F00084EC0E94790680E00E9461009A838983D3
:1011000089819A819E012D5F3F4FB9014AE050E0ED
:101110000E949308CE0103960E9427078AE690E07A
:101120000E942707E5CFFB019F01E8944230C4F0FD
:101130004532B4F44A3029F497FB1EF4909581951A
:101140009F4F642F77270E94C408805D8A330CF07C
:10115000895D8193CB010097A1F716F45DE251936D
:101160001082C9010C94B408DC01FC01672F719155
:101170007723E1F7329704C07C916D93708362917D
:10118000AE17BF07C8F30895AA1BBB1B51E107C0E8
:10119000AA1FBB1FA617B70710F0A61BB70B881F07
:1011A000991F5A95A9F780959095BC01CD01089596
:0411B000F894FFCFE1
:0E11B4004144432076616C75650020200000E8
:00000001FF
